:020000041000EA
:4000000000F00308771400100D000000DD140010DD140010DD140010DD14001000000000000000000000000000000000D9140010D914001000000000D9140010D914001025
:40004000D9140010D9140010D9140010D9140010D9140010D9140010D9140010D9140010D9140010D9140010D9140010D9140010D9140010D9140010D9140010D9140010B0
:40008000D9140010D9140010D9140010D9140010D9140010D9140010D9140010D9140010D9140010D9140010D9140010D9140010D9140010D9140010D9140010D914001070
:4000C000D9140010D9140010D9140010D9140010D9140010D9140010D9140010D9140010D9140010D9140010D9140010D9140010D9140010D9140010D9140010D914001030
:40010000D9140010D9140010D9140010D9140010D9140010D9140010D9140010D9140010D9140010D9140010D9140010D9140010D9140010D9140010D9140010D9140010EF
:40014000D9140010D9140010D9140010D9140010D9140010D9140010D9140010D9140010D9140010D9140010D9140010D9140010D9140010D9140010D9140010D9140010AF
:40018000D9140010D9140010D9140010D9140010D9140010D9140010D9140010D9140010D9140010D9140010D9140010D9140010D9140010D9140010D9140010D91400106F
:4001C000D9140010D9140010D9140010D9140010D9140010D9140010D9140010D9140010D9140010D9140010D9140010D9140010D9140010D9140010D9140010D91400102F
:40020000D9140010D9140010D9140010D9140010D9140010D9140010D9140010D9140010D9140010D9140010D9140010D9140010D9140010D9140010D9140010D9140010EE
:40024000D9140010D9140010D9140010D9140010D9140010D9140010D9140010D9140010D9140010D9140010D9140010D9140010D9140010D9140010D9140010D9140010AE
:40028000D9140010D9140010D9140010D9140010D9140010D9140010D9140010D9140010D9140010D9140010D9140010D9140010D9140010D9140010D9140010D91400106E
:4002C000D9140010D9140010D9140010D9140010D9140010D9140010D9140010D914001010B5054C237833B9044B13B10448AFF300800123237010BDA40D000800000000BB
:40030000083E001008B5034B1BB103490348AFF3008008BD00000000A80D0008083E0010FF2901D0364B1970354B1B78F62B64D830B41C46334A3021D15442F20F729042CC
:4003400008D9A0F51C50103880B22E490A5D01320A55F2E72B4AD25C302A11D001221344DBB21D4627493024CC54B0F57A7F09D3A0F57A7080B2234C615D01316155F4E791
:400380000022ECE71F49C95C302900D001221344DBB21D461B493024CC5405E0643880B2184C615D013161556328F7D81549C95C302900D001221344DBB21D461149302475
:4003C000CC54092806D90A3880B20E4C615D01316155F6E70B49C95C302900D001221344DAB200F13003074883540132D2B2044B1A700023835430BC70470020704700BFC7
:40040000C20D000868120008FF2901D0354B1970344B1B78F62B63D8020F092A50D937210A443149CA540133DBB2C0F30362092A48D937210A442C49CA540133DBB2C0F36E
:400440000352092A40D937210A442749CA540133DBB2C0F30342092A38D937210A442249CA540133DBB2C0F30332092A30D937210A441D49CA540133DBB2C0F30322092AA0
:4004800028D937210A441849CA540133DBB2C0F30312092A20D937210A441349CA540133DBB200F00F02092A18D937210E480A44C2540133DBB20B4A13700022C2547047C1
:4004C0003021ADE73021B5E73021BDE73021C5E73021CDE73021D5E73021DDE73021E5E700207047C20D00086812000870B4FF2A01D01A4B1A700C46184B1B7803EB41033D
:40050000FE2B29DC00220AE0302612E030252944134DE954013252B2013310490B70944213DD8518815C0D4B1B7809090929EBD9372631440A4EF15429780133DBB201F0A6
:400540000F010929E2D93725E1E7044B1B7804480022C25470BC70470020FBE7C20D000868120008FF2901D0104B19700F4B1B78FF2B17D090F90020A2B110B402E090F9B0
:4005800000204AB101305C1C08490C700849CA54064B1B78FF2BF2D105480022C2545DF8044B704702480022C2547047C20D0008681200082DE9F04192B00D460C2808D808
:4005C000DFE800F0BA09A4A6A8AAACAEB0B2B4B6B8006C4CB1E0DFF810826B4F3946684600F006FC46466C460FCC0FC60FCC0FC60FCC0FC694E80F0086E80F00002163485A
:40060000FFF7B0FF97F910308DF840302D238DF8413097F912208DF842208DF8433097F913208DF844208DF8453000238DF84630FF2110A8FFF796FFFF21787CFFF770FECA
:40064000FF215348FFF78EFF7868FF2180B2FFF767FEFF214F48FFF785FF3878FF2100F03F00FFF75DFE4C4CFF212046FFF77AFF38787B7803F003039B00FF2143EA90107D
:40068000FFF74EFEFF212046FFF76CFF7878FF21C0F38400FFF744FEFF214048FFF762FF7878BB7803F00F035B00FF2143EAD010FFF736FE3A4CFF212046FFF753FFB87835
:4006C000FB7803F003031B01FF2143EA1010FFF727FEFF212046FFF745FFF878FF218008FFF71EFEFF212F48FFF73CFFFF2208217818FFF7FBFEFF212B48FFF733FFFF2194
:40070000D8F83000FFF780FE044616E0274C14E0274C12E0274C10E0274C0EE0274C0CE0274C0AE0274C08E0274C06E0274C04E0274C02E0274C00E0274C5CB121462748B0
:4007400001F0B6FF65B92649244801F0B1FF12B0BDE8F08140F2AF51224802F069FAEDE700212846FFF750FE044620B121461B4801F09EFFE7E740F2AF511A4802F058FAB0
:40078000F4E700BF483600100010000860360010A4360010B0360010B8360010CC360010BC360010C0360010D03600101C35001028350010343500105435001074350010AC
:4007C00094350010B8350010DC350010FC35001024360010FC340010183500100000624048370010E03600102411000830B4002414E0A3F14105EDB2052D39D8373B0B7081
:400800001DE0A3F14105EDB2052D33D80D782B44373B0B70023001310134E4B2944224D290F90030602B01DD203B037090F90030DBB2A3F13005EDB2092DDAD80D700B78A3
:400840001B010B7090F90130602B01DD203B437090F90130DBB2A3F13005EDB2092DD0D80D782B44303B0B70D4E7002030BC70470720FBE70720F9E708B500F0F5FA154BBF
:40088000186010F47F0F0DD1124B5B787BB9114BDB7893B90F4B1B78ABB900210846FFF789FE08BD01460920FFF784FEF9E7094B19680820FFF77EFEF3E7064B19680B20E1
:4008C000FFF778FEEDE7034B19680A20FFF772FEE7E700BF6411000870B590B0A34B93F83D30DB090ED1144609280FD8DFE810F01000190022002500650071008E00C00074
:40090000FA00350100210C20FFF754FE10B070BD914204D005200021FFF74CFEF6E70020F9E7914204D005200021FFF743FEEDE70120F9E7FFF7A0FFE8E7891A452904D0B9
:4009400000210520FFF736FEE0E7D31C0822884988481844FFF74AFF18BB04F114030822854984481844FFF741FFF0B904F12503102282497F481844FFF738FFC8B9804B57
:4009800002221A7001347B4A125D303A18BF0122597862F3C711597000210846FFF70AFEB4E70021FFF706FEB0E70021FFF702FEACE70021FFF7FEFDA8E70021684600F031
:4009C0000FFA00210220FFF7F5FD6E4B02221A709CE7501C091AC1F3470422466A49654B1844FFF703FF68B9002322466649684600F00AFA00210320FFF7DCFD614B03224B
:400A00001A7083E70021FFF7D5FD7FE7914204D000210520FFF7CEFD78E75C4E684600F00FFA35466C460FCC0FC50FCC0FC50FCC0FC594E80F0085E80F00002196F8210004
:400A4000FFF76EFC054668B1514C2946204601F02FFE5049204601F02BFE00210846FFF7A9FD53E740F2AF514B4802F0E1F8EBE7914204D000210520FFF79CFD46E7434E28
:400A8000684600F0DDF934466D460FCD0FC40FCD0FC40FCD0FC495E80F0084E80F003F4C96F821202146684600F0BCF9002296F821102046FFF71AFD054668B1344C2946C6
:400AC000204601F0F5FD3349204601F0F1FD00210846FFF76FFD19E740F2AF512E4802F0A7F8EBE7891A02290DD10134214B1B5D312B24D0322B29D0302B09D0002105202B
:400B0000FFF758FD02E700210520FFF753FDFDE6234B1A7B032161F303021A7300210846FFF748FD0021022001F0ACFF1C49684600F0AEF90321022001F0A4FFE6E6184BC9
:400B40001A7B022161F303021A73E7E7144B1A7B012161F303021A73E0E7914204D005200021FFF727FDD1E60020F9E7C40D0008E202000824100008EA020008F202000897
:400B8000E0020008C10D000868120008241100080000624048370010E0360010681100084403000830B5A1B0424B1B7803B3414B1B78012B25D1404BD3F84023B2F1FF3FA8
:400BC0004FD0D2B23D4B1B78012B2FD059B239B3022B35D0FF2B3DD00D2A44D00A2A42D00133DBB235490B70043B3549CA5438E03449684600F0B4F800210120FFF7DAFC99
:400C0000D5E710A800F01CF99DF87530DB09D2D100210846FFF7CEFC264B01221A70CAE7412A1ED10133254A13701AE0542A03D0224B00221A7014E00133204A137010E093
:400C40002B2A03D01D4B00221A700AE001331B4A137006E000210620FFF7ACFC174B00221A7021B030BD033BD9B2144B1970002012E0FFF731FE114B00221A70F1E70132A0
:400C8000D2B2914206D3AB56002BF2D00C4CA45C9C42F4D00130C0B20B4B53F820500DB10022EEE700210420FFF784FC034B00221A70D6E7C10D000800006240C00D0008F4
:400CC0002410000824030008D034001070470000014B01221A6070476813000870B506461A4B197093F83D30DB0911D00124174B83F83C403446164D0FCD0FC40FCD0FC4C6
:400D00000FCD0FC495E80F0084E80F00304670BD154600240D4A92F83D3043F0800382F83D3020460B4B1C600B4B0C4A012101F0D9FA40B925B1054B93F83D30DB09FAD160
:400D4000002CD7D0D3E70324D1E700BFC40D0008CC0D000868130008D10C00105803000870B590B006460D4600221949012001F00BFB184B184C5C60DC60656094F83D309E
:400D800043F0200384F83D3094F83D306FF3C71384F83D30012211466846FFF79FFFA36BB12B02D9A36BB42B03D90B4B052283F83C203446094D0FCD0FC40FCD0FC40FCD2E
:400DC0000FC495E80F0084E80F00304610B070BDCD0C001058030008C40D0008CC0D000810B504460A462021FFF778FF204610BD10B50446034B996401220321FFF76EFF6C
:400E0000204610BDC40D000838B50546044CA164E2641A463021FFF761FF284638BD00BFC40D000810B50446044B9964DA6401224021FFF753FF204610BD00BFC40D0008A1
:400E400070B406460446074D0FCD0FC40FCD0FC40FCD0FC495E80F0084E80F00304670BC704700BFCC0D0008084B1A7A002062F307001A7E62F30F2093F8282062F3174059
:400E800093F83C3063F31F60704700BFC40D000870B590B006460C461D4DA964002250216846FFF71BFF95F83C30DBB9237B03F00703032B23D0174A1268002AFBD0022B06
:400EC0001ED0012B20D03446134D0FCD0FC40FCD0FC40FCD0FC495E80F0084E80F00304610B070BD344608350FCD0FC40FCD0FC40FCD0FC495E80F0084E80F00EFE7FEE711
:400F0000002002F027F9DEE7002002F03FF8DAE7C40D000868130008CC0D000808B54FF47A7001F061FE00F013F862B6064C00220649204601F0D4FB236843F000432360B9
:400F4000FFF730FEFCE700BF00006240A037001008B500F009F800F02FF800F03BF800F05FF800F027F808BD114A136899684FF08040C1F800049868B3F87410435823F4AB
:400F80007F4343F4CE434350126892F8731003238B4092F8701092F8720081400B43916843F00043C1F800349368D3F8003470476C13000870470000054B1B6893F83F20FF
:400FC000012A03D99B680022C3F8042C704700BF6C13000810B50C4C0C4A0021204600F029FE0B4A0121204600F024FE04F58074084A0421204600F01DFE074A052120462B
:4010000000F018FE10BD00BF00053240483800107C380010E037001014380010FEE7000010B582B09621002001F080FE01F01EFE002800F0B780784B1B6893F83E2032B140
:401040007649D1F8802322F03002C1F880231968D3F888208B5823F47F438B506E4A13681868D3F88410435823F07F4343F08073435013681868D3F88410435823F47F4311
:401080004350136893F83D30002B40F08E800021012001F0F7FC604B1B6893F83E30002B00F096805D4BD3F8803313F00F0F00F095805A4BD3F8882522F0405242F00052B2
:4010C000C3F88825D3F8802522F00042C3F88025D3F88C2522F00042C3F88C250021084601F0D0FC4C4B1B6893F83E3033B14B4AD2F8803323F00F03C2F8803300210091AF
:4011000019231622012000F095FB10B1444A90427DD1414C23681968D3F884208B5823F07F4343F080738B500021012001F0AAFC236893F83E3043B1384AD2F8803323F007
:401140000F0343F00103C2F880330321022001F099FC314B1A6892F83E3043B12F49D1F8803323F00F0343F00203C1F8803392F83E3033B1294AD2F8803323F03003C2F87A
:401180008033264BD3F8803113F0010F06D1234AD2F80C3523F00043C2F80C3500F04AF802B010BD01F052FD45E71C4CD4F8003623F0405343F00053C4F80036012001F025
:4011C0002BFDD4F8003623F00043C4F800365EE740F27361134801F02BFD63E7002001F07FFC40F2111398427FF463AF0A4B1B6893F83E30002B3FF45CAF084AD2F880332A
:4012000023F00F0343F00103C2F8803351E70220FFF704FF7DE700BF6C1300080000264003001600B038001008B5012001F03CF908BD704730B4654BD3F8802302F00F02EC
:4012400002F1D00153F8213003F00703042B17D8DFE803F00316160508005D4B11E05D4B1B680EE002F1C003584951F8233003F01F03112B1DD0132B1ED04FF4FA4300E08E
:40128000554BB2BB514AD2F8900500F00100D2F88815C1F30171D2F8882512F0405F0ED04A4AD2F88825C2F30172012A08D0002206E04FF40043E4E74FF40043E1E70122B3
:4012C00002B108B9032917D1404AD2F88015C1F31101D2F88405C0F30C00D2F88025C2F300620132B3FBF0F301FB03F3B3FBF2F302E0013A012A32D9344AD2F88023C2F3E3
:401300000112D340354A1360354AD2F89010C1F3072101311269120E0132B3FBF2F231480260B3FBF1F3304A1360304A136003F5742202F23F222E49A1FB0212C2F387426F
:401340002C490A7003F2E7332B4AA2FB03239B092A4A1360DB032A4A136030BC70471B4902F5C87051F8204004F0010402F5C07551F82500C0F3017051F8251011F0405F33
:4013800009D02946114D55F82110C1F30171012902D0002100E0012101B10CB90328ABD10A4C02F5C07254F8221001F07F0154F82200C0F3042054F82220C2F3044201FB6E
:4013C00003F3B3FBF0F3B3FBF2F395E70000264000127A006C03000800366E01700300080000214074030008680300087C03000883DE1B4384030008D34D62108003000889
:401400007803000808B50D4800F03CFBFFF711FFFFF710FF00221146042001F0B5F8084800F088FE074B1B6893F8513013B900F0F9FB08BD044800F0F5FEF8E7B83900107F
:401440001C0E00086C1300081839001008B501F02CFF074AD2F8883043F47003C2F88830BFF34F8FBFF36F8F01F023FF08BD00BF00ED00E07047FFF7FDFF72B6104C114D5B
:40148000AC4209DA21686268A368043BA2BFC858D050FAE70C34F3E70B490C4A00209142BCBF41F8040BFAE709480A490860BFF34F8FFFF7CBFFFFF7A5FFFFF72FFDFEE7E4
:4014C0000C3E0010243E0010A40D0008941300080000000808ED00E0FEE7FEE700B504207146084202D0EFF3098001E0EFF30880043001F0C9FBFEE738B50D4640F400402D
:4015000000040D4BD8614FF47A740B4B1B6C13F0010F05D124B1013C012001F07DFBF4E744B1054B1A6C42F001021A64DB6A2B80002038BD0148FCE700003C400400160063
:4015400010B50E4B03EA004008430D4BD8614FF47A740B4B1B6C13F0010F05D124B1013C012001F059FBF4E734B1054A136C43F001031364002010BD0248FCE70000FF7F01
:4015800000003C400400160070B582B006460D460A240EE00DF1060141F60260FFF7ACFF034684B1013C7BB9BDF80620B2F5C05F0AD04FF4C05141F60260FFF7C1FF0346EE
:4015C0000028EED1E6E76A4B8BB1002B3BD0002B73D1BDF8063023F03F039BB2012E3AD0002D4AD1AEB2C6F10104A4B247E00DF1060141F60360FFF77FFF03460028E4D1C1
:40160000BDF8062012F4806FDFD10A2408E0C4B1013C002BD9D1BDF80620B2F5806FD4D04FF4806141F60360FFF78AFF03460028EDD10DF1060141F60360FFF75DFF0346D2
:40164000E5E74B4BC1E70DF1060141F60960FFF753FF0346BBE7012D0AD90024022643F07003ADF80630434BEB40434A136010E0AEB2C6F10204A4B2F1E70024012623F058
:40168000400343F01003ADF806303C4BEB403A4A1360BDF806103143ADF8061041F60960FFF74EFF0346AD1B05F00305A400A4B22543ADF80650324A55664FF0B052527893
:4016C0006AB14FF0B0525278D2B2212A07D02D4A128892B21AB12BB163B16BB3A3B3184602B070BD0DF1060141F60760FFF704FF0346F1E7BDF8061021F06001214A13885D
:401700009B095B0103F06003194321F428611388DB0103F4F063194321F4C05113881B0ADB0203F4C0531943ADF8061041F60760FFF706FF0346D0E70DF1060141F606601D
:40174000FFF7DAFE0346C9E7BDF8061021F0C0010C4B1B881B099B0103F0C0031943ADF8061041F60660FFF7EBFE0346B7E700BF040016000048E8016C0300080024F40082
:4017800000F03D401618001638B50C4681B2490089B241F4805141F0010141F60860FFF7CFFE054630B1A0B2400180B201F034FA284638BD46F6370141F60F60FFF7C0FEA6
:4017C0000546F0E770B59CB0184C13AD26460FCE0FC50FCE0FC533682B600AAD04F124060FCE0FC50FCE0FC533682B6001AD48340FCC0FC50FCC0FC523682B600C4C23685F
:40180000986913A900F5807000F0C8FB236898690AA900F5C07000F0C1FB2368986901A900F5007000F0BAFB1CB070BD4C3900106C1300082DE9F84F9DF82880012800F239
:40184000F380032900F2F380932B00F2F2800B2B40F2F180FB2A00F2F0801E46174689460546794B5B6813F4003F6CD1774BD3F8A03013F0010F06D0744BD3F8B43013F046
:40188000010F40F0DC80FFF79DFF714A02F5F8337049C3F8A41046F42021C3F8A8104FF00111C3F8AC10D2F8003113F0010F40F0C880664B1B6F13F0080F47D013680122AF
:4018C000654941EA42321343614A13605E4B5B6913F0804F02D0B8F1000F4AD05B4AD2F8C43043F00303C2F8C430584CD4F8A0A04AF4403343F03003C4F8A030402001F056
:401900008BF9D4F8B03013F0010F48D02AF4803A2AF0100A4AF4003B4BF0200B4B4BC3F8A0B04FF4FA644D4B1B689A6944F21003D35813F0100F3FD1002C3DD0013C0120C4
:4019400001F06AF9EFE701F07BFB8FE7444B1B68444A934203D83E4B1B68434AB3E7434AA2FB0332120D3A4B1B68013AA8D13E4AA9E70121032001F06DFA334B5B6903F0B9
:401980008043364A126892F84420002AADD0002BABD02D4A936943F080439361A5E70123C4F8B030402001F037F90323C4F8B030402001F031F9A9E73CB92D4868B3A0BB58
:4019C00031463846FFF7E0FE2FE0204A936E43F008039366012001F00FFA10B1B8F1010F03D14AF4003B4BF0280B2BF4802B4BF00103164AC2F8A0301E4C03E0013C01207F
:401A000001F00AF9114BD3F8B43013F0010F01D1002CF3D134B10020D0E749462846FFF7B3FDCCE71248CAE71348BDE8F88F1248FBE71148F9E71048F7E70F48F5E70F48F9
:401A4000F3E70F48F1E700BF0000264000F03D4000003C4006000001041A00806C1300087403000800093D00040A008083DE1B4304001600F07E0E0001001600030016004B
:401A800002001600014B1860704700BF6C130008214B98422DD00ED9204B984231D01DD91F4B984232D00133984231D0023B984230D01C48704740281DD006D980281ED096
:401AC000B0F5807F08D114487047B0B1102801D1154870471348704712487047B0F1204F12D0124B984202D14FF4A00070470D487047094870470E487047002070470D48D1
:401B000070474FF4A4007047002070470A4870470A4870470A48704706005200010000F0040000F0FF00520001005000090000A00200500005005200020052000300520084
:401B40000100520038B5134B1B6893F83130012B17D9104B1D682B6AB5F8B02013442C46D5F8B420D358002B11DB0B4B1868FFF78FFF6B6801229A6063689B68002BFBD18F
:401B800038BD40F2CD11054801F052F8E1E70448F6E700BF6C1300089C0F0008703A0010020050001A4B186028B102230370FF23437000234380174B1B6893F8502002B9FE
:401BC000704700B583B0B3F93830ADF80030002301931149684600F0CDFFBDF90030002B07DB03F01F015B0901228A400B4941F82320084B1B6893F8513013B903B05DF805
:401C000004FB02220649012000F0BEFBF6E700BFAC0F00086C1300082D08000800E100E0E908000808B50248FFF7BCFF08BD00BFB00F0008002800F0A4812DE9F0410646B8
:401C4000002A00F0A08114460D46072900F2FA802368012B00F2FB80636833F00F0340F0FB80237A33F01F0340F0FB80E368032B00F2FC802369012B00F2FD806369012B7E
:401C800000F2FE80A369012B00F2FF80E369032B00F20081236A012B00F20181636A012B00F20281A36A012B00F20381E36A032B00F20481236B072B00F205812768072DE7
:401CC00000F20681012F00F20981002F40F00C810123AB4073606768072D00F2098137F00F0340F00B81A800A84B1B6893F87D108B590F22824023EA020207F00F03834093
:401D000013438B51277A072D00F2FE8037F01F0340F000819D4B1A689369F31ADB0952691B01D118032D00F2FB80D1584FEAC50C1F2000FA0CF021EA000107F01F0707FAEC
:401D40000CF70F43D750E768082D00F2F680032F00F2F98068008D4B1B6893F87C108B590322824023EA020207F00303834013438B512769082D00F2EC80012F00F2EF8002
:401D8000B3690122AA4023EA020307F00107AF401F43B761D4F81480072D00F2E680B8F1010F00F2E88079490B6893F87EC05CF806000127AF4020EA070008F00102AA401C
:401DC00002434CF806206A0002F1100C032303FA0CF31F430B6893F87F00835923EA0707A36903F00103AB403B43E26902F0030202FA0CF2134383510B6893F88020B1584A
:401E000021F0FF01236A03F00103606A400000F002000343A06A800000F004000343E06AC00000F018000343206B4001C0B20343AD0005F47E7503FA05F50D43B550002026
:401E4000BDE8F0814F21524800F0F2FE00E750214F4800F0EDFEFFE651214D4800F0E8FEFFE652214A4800F0E3FEFFE65321484800F0DEFEFEE65421454800F0D9FEFDE6D6
:401E80005521434800F0D4FEFCE65621404800F0CFFEFBE657213E4800F0CAFEFAE658213B4800F0C5FEF9E65921394800F0C0FEF8E65A21364800F0BBFEF7E65B213448BE
:401EC00000F0B6FEF6E65C21314800F0B1FEF5E640F231312F4800F0ABFEF3E640F232312C4800F0A5FEF0E60123AB40B360F2E640F2CE31274800F09BFEF0E640F2CF31D8
:401F0000244800F095FEEEE640F29221214800F08FFEFBE640F293211E4800F089FEF9E62B1F4A68DB001F20984022EA000207F01F079F4017434F6005E740F2F2611548C1
:401F400000F076FE03E740F2F361124800F070FE00E740F273610F4800F06AFE0DE740F274610C4800F064FE0AE740F20D41094800F05EFE13E740F20E41064800F058FE7B
:401F800011E70548704704485AE700BF6C130008D83A00103C3B001001005A00002869D0F8B50546002967D00C460B6833F0FF0342D1236933F0FF0343D1A3685B0D5B0500
:401FC000002B43D1636823F4FF7323F00103002B41D1E36913F0604F42D1236A13F0604F43D1264A11688B69EB1ADB0949691B01C81826682E60166896F87D60E768AF51CE
:40200000166896F87E602769AF51166896F87F606769AF51166896F87C60A768AF516668AE61126892F88020A669AE50E269CA50236A43600020F8BDA321114800F0F8FD7A
:40204000B7E7A4210E4800F0F3FDB6E7A5210C4800F0EEFDB6E7A621094800F0E9FDB8E7A721074800F0E4FDB7E7A821044800F0DFFDB6E7034870470248DCE76C13000871
:40208000D83A001001005A0038B50C4B1B68D3F8B4301B58002B0EDA0C4605460B0C1B041BB9A4B26C60002038BD40F2DF21044800F0BEFDF5E70348F6E700BF6C13000856
:4020C000703A001001008A0038B50368002B0FDA0C460546C2600B0C1B041BB9A4B2AC60002038BD40F2C521024800F0A1FDF5E70148F6E7703A001001008A0038B5044681
:402100000D4651B1084B1B68D3F8B4301B59002B08DAE3682B60002038BDA321034800F087FDEFE70248F7E76C130008A03B001001008A00034B1B6803B17047014B1860DB
:40214000FBE700BFB40F00082DE9F8430446884691461E46089F2F4B1B68002B3DD02D4B1B682C2000FB04F01C18F5B21D50C6F307236360360CA660274B1B6893F8313026
:402180009D422FD2244B1B681A6AB3F8B01001FB05252561666893F832309E4228D21E4B1B681D6A803605EB46156561A668330C1B041BBB330C1B0433BBB3B243EA064677
:4021C000AE60C4F81C90C4F820800023A36117B1B7F90030A381BDE8F883BF210F4800F027FDBCE740F2CD110D4800F021FDC9E740F2E9110A4800F01BFDD0E74FF40271F6
:40220000074800F015FDD5E740F20921044800F00FFDD2E7B40F00086C130008083C0010703A0010F0B58FB0044600283FD0A369072B41D8E36A002B43D0236B002B45D0BF
:4022400007AD04F114060FCE0FC537682F6002AD26460FCE0FC533682B601F4B1B68DB8E079A1344ADF83030089B0D930CAD00953B46A26AE16A0A98FFF766FF002100915F
:40228000069B0A460598FFF75FFF216B284600F071FCBDF93030002B07DB03F01F015B0901228A400D4941F823200FB0F0BD5C210B4800F0BDFCBAE76021094800F0B8FC90
:4022C000B8E76221064800F0B3FCB6E76321044800F0AEFCB4E700BF6C13000800E100E0083C0010F8B506460F461D46144642B3204B1B685BB31F4B1B682C2101FB06306A
:4023000001FB07314B68012202FA03F31B04466802FA06F6026932B38F6937BB1268002A25DA2288134323600369DC6001238B614D620469330C1B047BB9B6B2A660002088
:40234000F8BD40F207110C4800F072FCD0E74FF48471094800F06CFCCDE740F2C521074800F066FCE9E70648EAE70648E8E70548E6E700BFB40F0008083C0010703A0010E9
:4023800004028A0007028A0070B504460E4615460F4B1B6873B10E4B1B682C2202FB0434236A6BB1E369AB4210D9236A43F82560002070BD4FF4B471064800F039FCEAE76B
:4023C0004FF4B671034800F033FCEBE70248F0E7B40F0008083C00100A028A0070B582B000230193044680B12369A3B16369C3B1236AE3B16369DD682A0C1ED1ADB2002DD5
:402400003DD163691B6802B070BD40F2DB11244800F00EFCE8E74FF4EE71214800F008FCE4E740F2DD111E4800F002FCE0E74FF4EF711B4800F0FCFBDCE712041A601B6845
:402440002069184B1B68D3F8B4301B58002BD5DA01A9FFF753FE60B9019803681E0CDBB2E2699A4206D9226A52F8233013B1984700E0002631462069FFF706FEBEE76369E9
:402480001D601B68636A2BB19847002363620023A361B6E7A36A002BF9D09847F7E700BF083C00106C13000810B50446084B1B683BB1074B1B682C2000FB0430FFF78EFFEC
:4024C00010BD40F2BB11034800F0B2FBF1E700BFB40F0008083C0010264B1B6893F83130834242D9002942D00B6813F01F0F01D02148704770B50D4604461E4B1B6893F8AA
:40250000313098421CD21B4B1B68186AB3F8B03003FB0404194E34602A68D2080021686800F0CAFE00212046FFF7AEFD34686DB12A4600212046FFF7C7FD68B1104870BD35
:4025400040F2CD110F4800F073FBDCE740F29D310C4800F06DFBEBE70021084B1868FFF793FD0028EBD00648E9E7034870470248704700BF6C13000803018A00C00F00082C
:4025800001018A00703A001010B5044613461AB11BB3D1B9124810BD0029F9D1114B1B6893F8313098420AD20E4B1B681A6AB3F8B03003FB04240C4B1C600020EBE740F2A7
:4025C000CD110A4800F034FBEEE7094A1160536011462046FFF780FFDDE70148DBE700BF03018A006C130008C00F0008703A0010B80F00082DE9F041194B1B68DD682B6805
:4026000083422BD90C46460900F01F00012303FA00F8B9B10027124B18680368002B17DA6A6852F8263013EA080F0FD023EA080342F8263000250021FFF726FD54B1284634
:40264000BDE8F08100F031FE0746E4E7054DF2E7054DF3E7384600F02CFEF0E7034DEEE7C00F0008020188000301880004018A000B4B1B68DB681A6882420CD9410900F024
:402680001F00012202FA00F05B6853F82130034203D004487047044870470448704700BFC00F00080101880004018A000001880030B4036813F4006F02D08022002404E0F3
:4026C0004022FBE7C0F8405201340D5735B1D0F80832C3F308039A42F9D0F3E730BC7047002800F0C48170B50546002900F0C18116460C460B78022B20D8637B023BDBB2C2
:40270000062B20D8A37B1BB1022B01D0032B1FD194F82130012B20D894F82830012B21D82378012B23D9A37F002B00F0BC806368013B062B00F2B98000231EE04921974857
:4027400000F076FAD9E74A21944800F071FAD9E74B21924800F06CFADAE74C218F4800F067FAD9E74D218D4800F062FAD8E76368083B082B94BF00230123002B40F097808A
:40278000A368053B042B00F297806369FF2B00F29880A369FF2B00F29980A37C4BB123781BB9A368092B00F0968054217B4800F03FFA636B23F4366323F00D03002B40F029
:4027C0008F80E36B23F4EE6323F00303002B40F08C802378022B00F08D806268013A237F002B00F08D804FF48033A168082900F289804FF400610B4302F00F02134343F057
:4028000000732B60226B2B6813F4006F7CD080239A427BD2A26B2B6813F4006F7BD080239A427AD2626A2B6813F4006F7AD080239A4279D223781B0603F040732B64637F04
:40284000002B76D04023A27C002A74D04FF480621343227C002A70D04FF480721343627C002A6CD04FF400721343E26A013A120402F470221343627B013A02F007021343B7
:40288000A27B120102F030021343AB64237B002B57D04FF48073E27B002A57D12278022A51D0002254E0002367E7012365E74F213A4800F0BDF963E75021384800F0B8F9F8
:4028C00063E75121354800F0B3F962E75221334800F0AEF961E7A37B002B3FF46AAF64E756212E4800F0A4F96BE757212B4800F09FF96EE7A37F002B7FF46FAF00226EE724
:40290000002372E7002176E7402381E76C21234800F08EF97EE7402382E76D211F4800F087F97FE7402383E76E211C4800F080F980E7002387E700228AE700228EE70022FA
:4029400092E70023A7E74FF4007201E04FF400721343A268013A02F00F021343C5F80033227DA3691B0403F47F031343C5F81033E26AD5F8003303F00F0303339A4201D32E
:40298000102A03D98421054800F052F9E37F3BB12378012B5BD0002203E000BF703C00100022637B013B03F007031343A27B120102F0300213436B64237B002B4AD04FF4E6
:4029C0008072A368013B03F00F0313432278012A42D000221343C5F8003294F83030C5F8043394F82030002B39D04FF0007394F82120012A35D00022134394F82820012AEF
:402A000032D00022134394F8242013432B6594F83830C5F80432636B23F4926323F002031B051B0DC5F8C83FE36B23F08C035B055B0DC5F8883FF6B1002070603060B0600E
:402A4000F0603062F06230630C4B736370BD4FF48072A6E70022B4E74FF48032BAE70023C5E74FF08072C7E74FF48032CAE7044870470348EAE70020E8E700BFEFCDAB0098
:402A80000160AA00134B1B6893F83C3083421DD9042904D9A1F580739BB2132B18D8FF290CD901F01F010C4B00F1C00243F82210D030042243F820200020704701F0070164
:402AC000D030054B43F820100020704703487047024870476C1300080000264001004A0010B504460E4B1B6893F83C30834209D904F1D0030B4A52F8230000F007000428D3
:402B000006D010BD40F24711074800F091F8EFE7C03452F8240000F01F0040F48070F0E76C13000800002640D83C001038B50D4B9A680D4B9A4204D010300C4B53F82000FC
:402B400038BD0D46044639B104F11003064A52F8230042F82350F3E740F24111044800F067F8F1E700ED00E000000008000000103C3D001060B338B504460D464368072BAE
:402B800013D8B4F900306268002B13DB5201D2B203F1604303F5614383F800230D4B9A680D4B9A420DD0002038BD3C210B4800F03FF8E6E703F00F035201D2B20849CA5453
:402BC000ECE72946B4F90000FFF7B0FF0020EBE70448704700ED00E0000000083C3D001014ED00E00100560010B50446B4F5004F06D9074B186800F04FFBA4F50044F5E70B
:402C0000044B186800FB04F000F046FB10BD00BF780300088003000808B5034B1B7800FB03F000F039FB08BD8403000801BEFEE738B50D46044C18220146204600F08CFB75
:402C4000A5610020FFF7F2FF100D0008054B4FF000429A649B6C002B01DB002070470248704700BF0000274003004600044BD3F800085B6813F0FF0F01D040F480207047AC
:402C800000002640FEE7000008B50268254BDA6142681A6282685A62C2689A620269DA6242691A6382695A63C2699A631E4A916AD963D16A1964516A5964516B9964926BE1
:402CC000DA64F1EE103A13F0900F27D0026A154B1A65426A5A65826A9A65C26ADA65026B1A66426B5A66826B9A66C26BDA66026C1A67426C5A67826C9A67C26CDA67026DE9
:402D0000C3F88020426DC3F88420826DC3F88820C26DC3F88C20026EC3F89020FFF7B2FF08BD00BF100D000800ED00E070B4044600282ED019232F4802681668B2F8A85079
:402D4000725922F003028B422CBF002301231A43725102681668B2F8A850725922F44072725102681668B2F8AA50725922F003021343735103681868B3F8AA20835823F498
:402D8000407383503CB110291DD9212926D801221AE06423CFE7174B1B6893F855208A421ED293F856208A421CD293F857208A421AD293F858208A4218D293F859308B421F
:402DC00016D3042200E000220A4B1B6859680B6823F00F0313430B6070BC70470222F3E70022F1E70122EFE70222EDE70322EBE70522E9E76C13000810B50446012804D87B
:402E00004CB9114B5869C00F06E040F296710F48FFF70EFFF4E700200D4B1B6893F844300BB1012C00D010BD074B9B6913F0804F07D1054B9B69002B01DB0020F3E7012057
:402E4000F1E70120EFE700BF00002640A03D00106C13000838B5164B1B6893F84430D3B10D460446072817D8114B1B6893F84430C3B1104B9B6903F00703DBB29C420AD0E8
:402E80000C498A6922F0070204F0070002438A610DB19C4208D838BD4FF400610648FFF7C7FEE1E70023E8E7C820FFF7B5FEF2E76C13000800002640A03D001030B583B050
:402EC00004460D46022803D9042801D0032816D16B1EDBB2012B03D9042D01D0082D14D1264B53F82440042D29D0012D29D0022D2ED1234B1C68002C2DD024692BE040F65E
:402F0000E6112048FFF794FEE2E740F6E7111D48FFF78EFEE4E76469BCB11B4B984212D0A3681D42F7D1E3681A6800925B6801932368294668469847114B1C60EBE700206C
:402F4000EAE70020E8E7012DEAD103B030BD1C466369002BFBD1002000E02469002CF4D0A3681D42F9D1E3681A6800925B6801932368294668469847EFE700BFE80F000861
:402F8000E40F0008A03D0010FF00420070B50446012827D8254B1B6853B301210020FFF78DFF054600283AD100F07FF906461F4B1B681BB104210020FFF780FF1C4A13690D
:402FC00023F004031361012C14D030BF304600F070F9164B1B681BB108210020FFF76EFF284670BD4FF4E6711248FFF721FED1E70025D9E720BF4FF0B0539B899BB233B161
:403000004FF0B0539B899BB2B3F5807FDED10A4B1B7803B120BF084B01221A70D6E702210020FFF74BFF054DDAE700BFE80F000800ED00E0A03D0010FC0F0008FF004200ED
:4030400008B500F032F9074B5A6807490A4042F468525A605A680A405A605B6800F029F908BD00BF00002640FF00FC0F10B5044600282BD0184A1368DB6803F5F2431B688F
:4030800023601368DA6802F5F04212686260D96847F604028A58A260D96847F608028A58E260D96847F60C028A582261D96847F610028A586261D96847F614028A58A261B8
:4030C000DA6847F61803D358E36110BD40F6D5210248FFF7ADFDCDE76C130008A03D001010B5044600282AD0184B1B68DA68616802F5F0421160D968A06847F6040288509C
:40310000D968E06847F608028850D968206947F60C028850D968606947F610028850D968A06947F614028850D968E06947F618028850DB68226803F5F2431A6010BD40F624
:40314000FD210348FFF774FDCEE700BF6C130008A03D001070B5044601285BD8464B5B68002B5DD001210846FFF7A8FE0546002846D100F09AF806463F4B5B681BB104217E
:403180000120FFF79BFE3D4B1B6893F843202AB19B68D3F8E03013F0100F43D14FF0B0539B899BB233B14FF0B0539B899BB2B3F5807F46D1204600F087F9304B1B6893F810
:4031C0004320D2B1C8B19A68D2F8E02012F0100F13D04FF0B0525278002A3DD04FF0B0525278D2B2212A39D01A6AB3F8B030C3EBC3031344D868FFF773FF304600F059F842
:4032000075BB1D4B5B681BB108210120FFF756FE284670BD40F2AF211948FFF709FD9DE70025A6E71748FFF721FFB7E730BF134B1B681A68D3F89430D35803F00303022B5E
:4032400008D1114A136943F004031361012CEDD120BFECE70020B0E70A48CCE70948CAE7054B5B681BB102210120FFF727FE074B9D42CDD0064DCBE7E80F00086C130008FE
:40328000A03D0010C40F000800ED00E005004200FF004200000000000230800803D001300238FCD100BF00BF7047EFF3108072B6704780F310887047F0B4860746D0541E2B
:4032C000002A3CD0CAB2034602E014F1FF3436D303F8012B9D07F8D1032C29D9CDB245EA05250F2C45EA054533D9A4F11006360903F1200707EB061703F1100242E90455B5
:4033000042E902551032BA42F8D1721C14F00C0F03EB021204F00F0613D0331F23F003030433134442F8045B9342FBD106F003042CB1C9B21C4403F8011B9C42FBD1F0BC14
:40334000704734461346002CF3D1F8E714460346C2E71A462646E0E770B440EA0104A30727D1032A25D90B460646194653F8045BA5F1013424EA050414F0803F06D1043A95
:40338000032A46F8045B1946EFD882B133460C7803F8014B551E74B132442E4405E011F8014FF51A03F8014B2CB19A42F7D170BC70470646E9E7002DF9D01D44002203F89E
:4033C000012BAB42FBD170BC704700BF024B13B1024800F005B8704700000000ED330010002301461A46184600F01EB838B50A4C0A4D641BA4100AD004F18043013B05EBDE
:403400008305013C55F804399847002CF9D1BDE8384000F053B800BFC0070008BC070008704700BF704700BF2DE9F0411E4C0546206890461F460E46FFF7F2FF1B4B1A6829
:40344000D2F8483133B35A6820681F2A27DC4DB9911C01325A6043F82160FFF7E3FF0020BDE8F08103EB82010124C1F8888004FA02FED3F88841022D44EA0E0CC3F888C1BF
:40348000C1F80871E4D1D3F88C114EEA0104C3F88C41DDE702F5A673C2F84831D3E7FFF7C1FF4FF0FF30DBE7B0070008043E0010F8B500BFF8BC08BC9E467047F8B500BF55
:4034C000F8BC08BC9E4670475FF800F0C10A00084C370010543700105C3700106437001070370010783700107C370010883700108C37001098370010000000004572726FD1
:40350000722030393A204C6F526157414E20697320627573790000004F4B00006A6F696E696E672E2E2E000073656E64696E672E2E2E00004572726F722030313A20415405
:4035400020636F6D6D616E64206E6F7420666F756E6400004572726F722030323A20496E76616C696420706172616D6574657273000000004572726F722030333A20415422
:4035800020627566666572206F766572666C6F77000000004572726F722030343A20496E76616C69642048657861646563696D616C2076616C7565004572726F72203035ED
:4035C0003A204C6F526157414E20726164696F206572726F72203078000000004572726F722030363A204C6F526157414E204D4143206572726F7220307800004572726F03
:40360000722030373A204C6F526157414E20706172616D65746572206572726F72203078000000004572726F722030383A204C6F526157414E2073797374656D2065727282
:403640006F722030780000004572726F722046463A20556E6B6E6F776E206572726F72002D2D3D204F6E657468696E78204C6F526157414E20436F7265204F542D58313885
:40368000203D2D2D0D0A3A20547970652D4F7074696F6E2D53746167652D526567696F6E3A2000000D0A3A204275696C643A200020283230000000002D0000003A000000C2
:4036C000290D0A3A204465764555493A200000000D0A3A2056657273696F6E3A200000002F4170706C69636174696F6E732F4D6F647573546F6F6C626F785F312E312F6C65
:4037000069627261726965732F70736F633673772D312E312F636F6D706F6E656E74732F70736F633670646C2F647269766572732F696E636C7564652F63795F7363625F66
:40374000756172742E6800000D0A000050494E4700000000494E464F0000000053544154555300005345545F4F544141000000004A4F494E000000005458000052585F4C01
:40378000454E47544800000052580000534C4545504D4F444500000048454C5000000000000000000800000008000000000200000000000000000000000000000000000010
:4037C0000000000000000000000000000B0000003F000000000000003F0000000000000000000000060000000000000000000000000000000000000000000000000000003A
:403800000000000000000000000000000000000000000000000000000600000000000000000000000000000000000000000000000000000000000000000000000000000082
:40384000000000000000000001000000080000001200000000000000000000000000000000000000000000000000000000000000000000000000000000000000010000002C
:403880000600000012000000000000000000000000000000000000000000000000000000000000000000000000000000000000002F4170706C69636174696F6E732F4D6FEF
:4038C000647573546F6F6C626F785F312E312F6C69627261726965732F70736F633673772D312E312F636F6D706F6E656E74732F70736F633670646C2F64726976657273FC
:403900002F696E636C7564652F63795F737973636C6B2E680000000003000000010000000100000000000000050360000400000001000000000000000100000006046000FE
:40394000080000007C0F00082912001000000000000000000000000066666666000000000000FFFF000000001C1C1C1C1C1C1C1C00000000000000000000000066E6EE664B
:40398000000000000000FFFF000000001C1A1A1A1A1A000000000000000000000000000066E66666000000000000FFFF000000001A1A001C0000000000002140000025403F
:4039C000000001400000344000002440000031400000324000001F410000234000001140010101010101010101101010800019005500F0000501053B04101C010100000028
:403A00000FC000000004000001010101011D3A57789600082000101208000000001F00000010000F002000023F06080E00080009000A000B24282C303400000010000000D3
:403A40009000000088000000080000008000000004F0000000F00000400200002005A000D00100018001A00120000000100000002F4170706C69636174696F6E732F4D6F96
:403A8000647573546F6F6C626F785F312E312F6C69627261726965732F70736F633673772D312E312F636F6D706F6E656E74732F70736F633670646C2F647269766572733A
:403AC0002F696E636C7564652F63795F6970635F6472762E680000002F4170706C69636174696F6E732F4D6F647573546F6F6C626F785F312E312F6C6962726172696573BD
:403B00002F70736F633673772D312E312F636F6D706F6E656E74732F70736F633670646C2F647269766572732F736F757263652F63795F6770696F2E630000002F4170700D
:403B40006C69636174696F6E732F4D6F647573546F6F6C626F785F312E312F6C69627261726965732F70736F633673772D312E312F636F6D706F6E656E74732F70736F636C
:403B80003670646C2F647269766572732F696E636C7564652F63795F6770696F2E6800002F4170706C69636174696F6E732F4D6F647573546F6F6C626F785F312E312F6CE1
:403BC00069627261726965732F70736F633673772D312E312F636F6D706F6E656E74732F70736F633670646C2F647269766572732F736F757263652F63795F6970635F648D
:403C000072762E63000000002F4170706C69636174696F6E732F4D6F647573546F6F6C626F785F312E312F6C69627261726965732F70736F633673772D312E312F636F6DCD
:403C4000706F6E656E74732F70736F633670646C2F647269766572732F736F757263652F63795F6970635F706970652E630000002F4170706C69636174696F6E732F4D6FB0
:403C8000647573546F6F6C626F785F312E312F6C69627261726965732F70736F633673772D312E312F636F6D706F6E656E74732F70736F633670646C2F6472697665727338
:403CC0002F736F757263652F63795F7363625F756172742E630000002F4170706C69636174696F6E732F4D6F647573546F6F6C626F785F312E312F6C6962726172696573A7
:403D00002F70736F633673772D312E312F636F6D706F6E656E74732F70736F633670646C2F647269766572732F736F757263652F63795F737973636C6B2E63002F41707021
:403D40006C69636174696F6E732F4D6F647573546F6F6C626F785F312E312F6C69627261726965732F70736F633673772D312E312F636F6D706F6E656E74732F70736F636A
:403D80003670646C2F647269766572732F736F757263652F63795F737973696E742E63002F4170706C69636174696F6E732F4D6F647573546F6F6C626F785F312E312F6C3C
:403DC00069627261726965732F70736F633673772D312E312F636F6D706F6E656E74732F70736F633670646C2F647269766572732F736F757263652F63795F737973706D4E
:403E00002E63000088030008000000000000001000000008E00200002C3E0010E0020008300A0000A40D0008F0050000F00000000000000000000000000000000000000028
:403E400000000000000000000000000000000000000000000000000000000000000000000000000000000000000000000000000000000001E0020008F10064000000000002
:403E800000000000000000000000000000000000010000000000000000000000320000000000000001006000C40D000800006000C40D000800127A0000127A0000127A00B8
:403EC00000093D000000A00F00127A00401F0000080000000000000074060008DC06000844070008000000000000000000000000000000000000000000000000000000001B
:403F00000000000000000000000000000000000000000000000000000000000000000000000000000000000000000000000000000000000000000000000000000000000081
:403F40000000000000000000000000000000000000000000000000000000000000000000000000000000000000000000000000000000000000000000000000000100000040
:403F8000000000000E33CDAB34126DE6ECDE05000B0000000000000000000000000000000000000000000000000000000000000000000000000000000000000000000000D5
:403FC00000000000000000000000000000000000000000000000000000000000000000000000000000000000000000000000000000000000000000000000000000000000C1
:404000000000000000000000000000000000000000000000000000000000000000000000000000000000000000000000000000000000000000000000000000000000000080
:404040000000000000000000000000000000000000000000000000000000000000000000000000000000000000000000000000000000000000000000000000000000000040
:404080000000000000000000000000000000000000000000000000000000000000000000000000000000000000000000000000000000000000000000000000000000000000
:4040C00000000000000000000000000000000000000000000000000000000000000000000000000000000000000000000000000000000000000000000000000000000000C0
:40410000000000000000000000000000000000000000000000000000000000000000000000000000000000000000000000000000000000000000000000000000000000007F
:40414000000000000000000000000000000000000000000000000000000000000000000000000000000000000000000000000000000000000000000000000000000000003F
:4041800000000000000000000000000000000000000000000000000000000000000000000000000000000000000000000000000000000000000000000000000000000000FF
:4041C00000000000000000000000000000000000000000000000000000000000000000000000000000000000000000000000000000000000000000000000000000000000BF
:40420000000000000000000000000000000000000000000000000000000000000000000000000000000000000000000000000000000000000000000000000000000000007E
:40424000000000000000000000000000000000000000000000000000000000000000000000000000000000000000000000000000000000000000000000000000000000003E
:4042800000000000000000000000000000000000000000000000000000000000000000000000000000000000000000000000000000000000000000000000000000000000FE
:4042C0000000000000000000000000000000000000000000000000000000000000000000000000000000000000000000000000000000000000000000000000007013000833
:40430000CD33001005030010E102001080B2C10050B3164B1B681A6AB3F8B030C3EBC303D358002BF5DA124B3E221A60043341F61E721A60A3F584730622C3F8182521F071
:404340007F41C3F81C15D3F81C35084B1B681A6AB3F8B030C3EBC303134400225A60054BD3F81C35002BFADA704700BF6C1300080401264000002640F8B5284B1B6893F882
:404380003130052B36D9254F3A68166AB2F8B03003EB83031E4452684FF26003D458A4B200F048FA05463B681968D3F890208A58013C032C1AD8032A22D01968D3F884201C
:4043C0008B581B0E8A58C2F30722581C02FB0000134B03FB00F0134B1B68134AA2FB03239B09B0FBF3F08230FFF790FF284600F031FAF8BD40F2CD110C4800F023FAC2E772
:404400000B4A1278002AD8D10822B2601968D3F890208A58032AF9D0CFE700BF6C13000840420F0070030008D34D6210703A00100B0000164378FF2B00D0704710B500F024
:40444000F9F90446104B1B6893F83130042B14D90D4B1A68136AB2F8B02003EB8203DB685A68136843F001031360136813F0010FFBD1204600F0EEF910BD40F2CD110348ED
:4044800000F0E0F9E4E700BF6C130008703A00102DE9F84307468846524B1B6893F83130012B3DD94F4B1B681C6AB3F8B0201444D3F8B450254493F85030002B73D04A4BF2
:4044C0001B78002B40D1474B1B6893F83130052B2CD9444B19680A6AB1F8B03003EB83031344D1F8B420D358002B74DB002000F0A5F93E4B984270D000233D4A1268012106
:40450000184600F08FF9B8B90026002000F096F9364B984212D0374B9E420FD80136F4E740F2CD11344800F08DF9BBE740F2CD11314800F087F9CCE7304C1CE02D4B9E42B7
:404540004DD84FF0010901E04FF0000900F072F906462B4BD3F81C35002B0FDB274CB9F1000F05D00121002000F058F90028F9D1304600F06FF92046BDE8F883214A0121FF
:40458000204600F053F908B11C4CE8E74046FFF7BDFE37B12B68002BFCDB00F057F90446DDE7194CDBE700F045F90646154A0121204600F03BF938B95FB12B68002BFCDB25
:4045C00000F044F9044600E00C4C304600F042F9D1E70D4CF9E7094CCDE7084CCBE7074CC9E700BF6C1300080B00001601018800AC0F0008EF490200703A00100500520069
:40460000000026409C0F000801005000F0B47C4B19684C680A6AB1F8B030C3EBC303D518D358002BF6DA4FF0B0535B78B3B14FF0B0535B78DBB2212B10D0724BEB60704BE2
:404640001B68196AB3F8B020C2EBC2020A44002151601968D3F89430194442E0EB6843F00103EB600B6AB1F8B020C2EBC2021344DA6812F0020FE2D0DD68ADB20E68D1F824
:404680008420B258120A120402F47F02D1F88870F659360A42EA06622A43DA600D68D1F88420AB5823F47F4343F41063AB50544A13681D68D3F888106B5823F47F4343F4E1
:4046C00010636B5013681A68D3F884105158D3F88830D358B3E730BF0B6803F00303022B0FD1494A136943F0040313610128F2D120BF464B1B7803B120BF444B01221A705C
:40470000EAE73F4B1A68116AB2F8B030C3EBC303C818CB58002BF4DA4FF0B0535B787BB34FF0B0535B78DBB2212B29D0D4F80C31002B63D136490E68364BD3F81855364A67
:40474000106841F61E770F600621C3F818153E2111604422C3F81C252E4BD3F81C35002BFADA4FF0AA33C4F80C31294B1E60A3F58473C3F8185503F58273186001202FE05E
:40478000C36813F0020F37D01468D2F88410625822F47F42C3681B0C1B029BB213436350174B19680D68D1F888402B5923F47F43086AB1F8B020C2EBC2020244D268120E41
:4047C00043EA02232B5101200D4B1A68136AB2F8B020C2EBC2021344DA6822F00102DA60074B1B681A6AB3F8B030C3EBC303134400225A60F0BC70470020E5E70020EFE7D0
:404800006C130008C40F000800ED00E0FC0F00080801264000002640040126405FF800F0F52500105FF800F0E52200105FF800F0C92000105FF800F0AB3200105FF800F06C
:40484000712600105FF800F0312C00105FF800F0451B00105FF800F0B3320010000000000000000000000000000000000000000000000000000000000000000000000000EA
:4048800000000000000000000000000000000000000000000000000000000000000000000000000000000000000000000000000000000000000000000000000000000000F8
:4048C00000000000000000000000000000000000000000000000000000000000000000000000000000000000000000000000000000000000000000000000000000000000B8
:404900000000000000000000000000000000000000000000000000000000000000000000000000000000000000000000000000000000000000000000000000000000000077
:404940000000000000000000000000000000000000000000000000000000000000000000000000000000000000000000000000000000000000000000000000000000000037
:4049800000000000000000000000000000000000000000000000000000000000000000000000000000000000000000000000000000000000000000000000000000000000F7
:4049C00000000000000000000000000000000000000000000000000000000000000000000000000000000000000000000000000000000000000000000000000000000000B7
:0200000490303A
:020000002FB817
:0200000490501A
:0C000000000000000000000000192FB8F4
:00000001FF